:030000000208A44F
:0C08A400787FE4F6D8FD75814A0208EB6D
:080AAA00415438395335320084
:1009D70020300800040E04150E040000040E0E0E4D
:1009E7001F0400000A1511110A04000E11111F1B24
:1009F7001B1B1F0E11101F1B1B1B1F000E151B0E91
:030A07000E0000DE
:060A0B00D2A17F057E0070
:100A1100D3EF9400EE940040217DFA7C00ED1D702F
:100A2100011CED4C70F77DF77C00ED1D70011CED94
:0A0A31004C70F7EF1F70D91E80D63D
:010A3B002298
:0A0A96008F90C2A0120A0BC2A12229
:0A0AA0008F90D2A0120A0BC2A1220F
:100A61007F40120A96E4FBFA74082BF8E6FF120A9B
:100A7100A00BBB00010AEB64304A70EC7F80020AD4
:010A810096DE
:100A3C008B3A8A3B893CAB3AAA3BA93C1208006032
:100A4C0013053CE53C7002053B14F9120800FF123B
:050A5C000AA080E22267
:100A82007F38120A967F0C120A967F01120A967F0D
:040A920080020A963E
:10093000E4F53AF53BAB07AA06EB4A70057F3002B7
:100940000AA0C3EA64809480500C7F2D120AA0C3D1
:10095000E49BFBE49AFAEB4A602E7C007D0AAF032D
:10096000AE02120819ED2430FF053BE53B7002058D
:100970003A14243CF8A6077C007D0AAF03AE0212AD
:100980000819AA06AB0780CEE53B153BAE3A7002CC
:10099000153A4E600C743C253BF8E6FF120AA08025
:0109A000E76F
:0109A1002233
:1009A200120A827BFF7A0A79AA120A3C20A218C292
:1009B200A30539E539700205387FC0120A96AF39AE
:1009C200AE3812093080E5D2A3E4F538F5397F015B
:0509D200120A9680D717
:1008B0000209A2E493A3F8E493A34003F68001F2B3
:1008C00008DFF48029E493A3F85407240CC8C33349
:1008D000C4540F4420C8834004F456800146F6DF18
:1008E000E4800B01020408102040809009D7E47EC8
:1008F000019360BCA3FF543F30E509541FFEE4930D
:10090000A360010ECF54C025E060A840B8E493A3D3
:10091000FAE493A3F8E493A3C8C582C8CAC583CAFE
:10092000F0A3C8C582C8CAC583CADFE9DEE780BEB6
:010A0A0000EB
:10080000BB010689828A83E0225002E722BBFE02F6
:09081000E32289828A83E4932229
:10081900C2D5EC30E709B2D5E4C39DFDE49CFCEEFA
:1008290030E715B2D5E4C39FFFE49EFE12084FC31B
:10083900E49DFDE49CFC800312084F30D507C3E416
:060849009FFFE49EFE2269
:10084F00BC000BBE0029EF8DF084FFADF022E4CC8D
:10085F00F875F008EF2FFFEE33FEEC33FCEE9DEC56
:10086F00984005FCEE9DFE0FD5F0E9E4CEFD22ED9C
:10087F00F8F5F0EE8420D21CFEADF075F008EF2FE6
:10088F00FFED33FD4007985006D5F0F222C398FDD7
:05089F000FD5F0EA2274
:00000001FF
